S02B0000443A5C446576656C6F70204D61726C696E5C4D61726C696E2D6275676669782D322E302E782D45540E
S3150800000000000120E11E0008311F0008311F00080A
S31508000010311F0008311F0008311F000800000000CA
S31508000020000000000000000000000000311F00086A
S31508000030311F000800000000311F0008B7440008FF
S31508000040311F0008311F0008311F0008311F000842
S31508000050311F0008311F00084145000847450008C0
S315080000604D4500085345000859450008311F00084A
S31508000070311F0008311F0008311F0008311F000812
S31508000080311F0008311F0008311F0008311F000802
S31508000090311F0008311F0008311F00085F4500089E
S315080000A039180008711700084D1800089517000838
S315080000B0A9170008BD170008D1170008311F000846
S315080000C0311F0008311F0008311F0008311F0008C2
S315080000D0311F00088D520008A5520008BD520008BD
S315080000E07545000889480008311F0008611800088E
S315080000F0211800087518000835180008311F00086F
S31508000100311F0008311F0008E5170008311F0008D5
S31508000110D9520008F1520008F91700080D1800080E
S31508000120311F0008311F0008311F0008311F000861
S31508000130311F0008311F0008311F0008311F000851
S31508000140311F0008311F0008311F0008311F000841
S31508000150311F0008311F0008311F00080953000825
S31508000160311F0008311F0008311F0008311F000821
S31508000170311F0008311F0008311F00080000000069
S30D08000180311F0008311F0008B9
S3150800018881F0004102E000BF83F0004330B54FEA32
S3150800019841044FEA430594EA050F08BF90EA020F9F
S315080001A81FBF54EA000C55EA020C7FEA645C7FEA32
S315080001B8655C00F0E2804FEA5454D4EB5555B8BF55
S315080001C86D420CDD2C4480EA020281EA030382EAC6
S315080001D8000083EA010180EA020281EA0303362D58
S315080001E888BF30BD11F0004F4FEA01314FF4801C2B
S315080001F84CEA113102D0404261EB410113F0004F3D
S315080002084FEA03334CEA133302D0524263EB4303F3
S3150800021894EA050F00F0A780A4F10104D5F1200E91
S315080002280DDB02FA0EFC22FA05F2801841F10001EC
S3150800023803FA0EF2801843FA05F359410EE0A5F1C0
S3150800024820050EF1200E012A03FA0EFC28BF4CF0F1
S31508000258020C43FA05F3C01851EBE37101F00045A7
S3150800026807D54FF0000EDCF1000C7EEB00006EEBB4
S315080002780101B1F5801F1BD3B1F5001F0CD349083E
S315080002885FEA30004FEA3C0C04F101044FEA445295
S3150800029812F5800F80F09A80BCF1004F08BF5FEA1C
S315080002A8500C50F1000041EB045141EA050130BDFC
S315080002B85FEA4C0C404141EB0101013C28BFB1F50E
S315080002C8801FE9D291F0000F04BF01460020B1FA59
S315080002D881F308BF2033A3F10B03B3F120020CDA2C
S315080002E80C3208DD02F1140CC2F10C0201FA0CF00A
S315080002F821FA02F10CE002F11402D8BFC2F1200C6F
S3150800030801FA02F120FA0CFCDCBF41EA0C01904024
S31508000318E41AA2BF01EB0451294330BD6FEA04046D
S315080003281F3C1CDA0C340EDC04F11404C4F1200258
S3150800033820FA04F001FA02F340EA030021FA04F36A
S3150800034845EA030130BDC4F10C04C4F1200220FAC1
S3150800035802F001FA04F340EA0300294630BD21FAFF
S3150800036804F0294630BD94F0000F83F4801306BFC5
S3150800037881F480110134013D4EE77FEA645C18BFB9
S315080003887FEA655C29D094EA050F08BF90EA020F50
S3150800039805D054EA000C04BF1946104630BD91EA48
S315080003A8030F1EBF0021002030BD5FEA545C05D14B
S315080003B84000494128BF41F0004130BD14F580048A
S315080003C83CBF01F5801130BD01F0004545F0FE41FE
S315080003D841F470014FF0000030BD7FEA645C1ABF33
S315080003E8194610467FEA655C1CBF0B46024650EA6A
S315080003F8013406BF52EA033591EA030F41F4002196
S3150800040830BD00BF90F0000F04BF0021704730B51B
S315080004184FF4806404F132044FF000054FF00001F0
S3150800042850E700BF90F0000F04BF0021704730B5B1
S315080004384FF4806404F1320410F0004548BF404286
S315080004484FF000013EE700BF42004FEAE2014FEADB
S3150800045831014FEA02701FBF12F07F4393F07F4FB6
S3150800046881F06051704732F07F4208BF704793F0B9
S315080004787F4F04BF41F40021704730B54FF46074CC
S3150800048801F0004521F000411CE700BF50EA0102CF
S3150800049808BF704730B54FF000050AE050EA010278
S315080004A808BF704730B511F0004502D5404261EBE8
S315080004B841014FF4806404F132045FEA915C3FF429
S315080004C8D8AE4FF003025FEADC0C18BF03325FEAC6
S315080004D8DC0C18BF033202EBDC02C2F1200300FA77
S315080004E803FC20FA02F001FA03FE40EA0E0021FA9C
S315080004F802F11444BDE600BF70B54FF0FF0C4CF48A
S31508000508E06C1CEA11541DBF1CEA135594EA0C0F3B
S3150800051895EA0C0F00F0DEF82C4481EA030621EA76
S315080005284C5123EA4C5350EA013518BF52EA0335B1
S3150800053841F4801143F4801338D0A0FB02CE4FF063
S315080005480005E1FB02E506F00042E0FB03E54FF093
S315080005580006E1FB03569CF0000F18BF4EF0010E8B
S31508000568A4F1FF04B6F5007F64F5407404D25FEA87
S315080005784E0E6D4146EB060642EAC62141EA55513A
S315080005884FEAC52040EA5E504FEACE2EB4F1FD0C7C
S3150800059888BFBCF5E06F1ED8BEF1004F08BF5FEAFA
S315080005A8500E50F1000041EB045170BD06F00046AC
S315080005B846EA010140EA020081EA0301B4EB5C0459
S315080005C8C2BFD4EB0C0541EA045170BD41F4801151
S315080005D84FF0000E013C00F3AB8014F1360FDEBF76
S315080005E8002001F0004170BDC4F10004203C35DA52
S315080005F80C341BDC04F11404C4F1200500FA05F3D5
S3150800060820FA04F001FA05F240EA020001F0004275
S3150800061821F0004110EBD37021FA04F642EB0601EB
S315080006285EEA430E08BF20EAD37070BDC4F10C0415
S31508000638C4F1200500FA04F320FA05F001FA04F2D9
S3150800064840EA020001F0004110EBD37041F10001C5
S315080006585EEA430E08BF20EAD37070BDC4F12005D0
S3150800066800FA05F24EEA020E20FA04F301FA05F238
S3150800067843EA020321FA04F001F0004121FA04F2E0
S3150800068820EA020000EBD3705EEA430E08BF20EAB0
S31508000698D37070BD94F0000F0FD101F000464000EA
S315080006A841EB010111F4801F08BF013CF7D041EA6C
S315080006B8060195F0000F18BF704703F00046520070
S315080006C843EB030313F4801F08BF013DF7D043EA41
S315080006D80603704794EA0C0F0CEA135518BF95EAF7
S315080006E80C0F0CD050EA410618BF52EA4306D1D17E
S315080006F881EA030101F000414FF0000070BD50EA9D
S31508000708410606BF1046194652EA430619D094EA26
S315080007180C0F02D150EA013613D195EA0C0F05D110
S3150800072852EA03361CBF104619460AD181EA030164
S3150800073801F0004141F0FE4141F470014FF000001C
S3150800074870BD41F0FE4141F4780170BD70B54FF0B7
S31508000758FF0C4CF4E06C1CEA11541DBF1CEA135537
S3150800076894EA0C0F95EA0C0F00F0A7F8A4EB050419
S3150800077881EA030E52EA03354FEA013100F0888010
S315080007884FEA03334FF0805545EA131343EA1263D9
S315080007984FEA022245EA111545EA10654FEA00268E
S315080007A80EF000419D4208BF964244F1FD0404F547
S315080007B8407402D25B084FEA3202B61A65EB0305A3
S315080007C85B084FEA32024FF480104FF4002CB6EB60
S315080007D8020E75EB030E22BFB61A754640EA0C00E0
S315080007E85B084FEA3202B6EB020E75EB030E22BF20
S315080007F8B61A754640EA5C005B084FEA3202B6EB61
S31508000808020E75EB030E22BFB61A754640EA9C001F
S315080008185B084FEA3202B6EB020E75EB030E22BFEF
S31508000828B61A754640EADC0055EA060E18D04FEAAD
S31508000838051545EA16754FEA06164FEAC30343EA4D
S3150800084852734FEAC2025FEA1C1CC0D111F4801F1A
S315080008580BD141EA00014FF000004FF0004CB6E713
S3150800086811F4801F04BF01430020B4F1FD0C88BFB2
S31508000878BCF5E06F3FF6AFAEB5EB030C04BFB6EBBD
S31508000888020C5FEA500C50F1000041EB045170BDB0
S315080008980EF0004E4EEA113114EB5C04C2BFD4EBDD
S315080008A80C0541EA045170BD41F480114FF0000E61
S315080008B8013C90E645EA060E8DE60CEA135594EADD
S315080008C80C0F08BF95EA0C0F3FF43BAF94EA0C0FE0
S315080008D80AD150EA01347FF434AF95EA0C0F7FF455
S315080008E825AF104619462CE795EA0C0F06D152EAA9
S315080008F803353FF4FDAE1046194622E750EA41068D
S3150800090818BF52EA43067FF4C5AE50EA41047FF49D
S315080009180DAF52EA43057FF4EBAE12E74FF0FF3C02
S3150800092806E000BF4FF0010C02E000BF4FF0010CD3
S315080009384DF804CD4FEA410C7FEA6C5C4FEA430C4C
S3150800094818BF7FEA6C5C1BD001B050EA410C0CBF9B
S3150800095852EA430C91EA030F02BF90EA020F0020FD
S31508000968704710F1000F91EA030F58BF994208BF64
S3150800097890422CBFD8176FEAE37040F00100704721
S315080009884FEA410C7FEA6C5C02D150EA013C07D178
S315080009984FEA430C7FEA6C5CD6D152EA033CD3D0C3
S315080009A85DF8040B704700BF8446104662468C46BD
S315080009B81946634600E000BF01B5FFF7B7FF0028F0
S315080009C848BF10F1000F01BD4DF808EDFFF7F4FF19
S315080009D80CBF012000205DF808FB00BF4DF808EDA4
S315080009E8FFF7EAFF34BF012000205DF808FB00BFC7
S315080009F84DF808EDFFF7E0FF94BF012000205DF8E9
S31508000A0808FB00BF4DF808EDFFF7CEFF94BF01209D
S31508000A1800205DF808FB00BF4DF808EDFFF7C4FF96
S31508000A2834BF012000205DF808FB00BF4FEA410CDF
S31508000A387FEA6C5C02D150EA013C0AD14FEA430CC2
S31508000A487FEA6C5C02D152EA033C02D14FF00000FF
S31508000A5870474FF0010070474FEA410212F500123D
S31508000A6815D211D56FF47873B3EB625212D94FEADF
S31508000A78C12343F0004343EA505311F0004F23FAC9
S31508000A8802F018BF404270474FF00000704750EA1E
S31508000A98013005D111F0004008BF6FF000407047DB
S31508000AA84FF00000704700BF4A0011D212F5001235
S31508000AB811D20DD56FF47873B3EB62520ED44FEAA0
S31508000AC8C12343F0004343EA505323FA02F0704720
S31508000AD84FF00000704750EA013002D14FF0FF305E
S31508000AE870474FF0000070474FEA4102B2F1E04301
S31508000AF824BFB3F5001CDCF1FE5C0DD901F0004CEF
S31508000B084FEAC0024CEA5070B2F1004F40EB83003E
S31508000B1808BF20F00100704711F0804F21D113F16A
S31508000B283872BCBF01F00040704741F480114FEAA3
S31508000B385252C2F11802C2F1200C10FA0CF320FA2C
S31508000B4802F018BF40F001004FEAC1234FEAD32349
S31508000B5803FA0CFC40EA0C0023FA02F34FEA4303B3
S31508000B68CCE77FEA625307D150EA01331EBF4FF03C
S31508000B78FE4040F44000704701F0004040F0FE4057
S31508000B8840F40000704700BF53B94AB9002908BFA6
S31508000B9800281CBF4FF0FF314FF0FF3000F00CB8AB
S31508000BA8ADF1080C6DE904CE20F0D8FDDDF804E0B7
S31508000BB8DDE9022304B07047704700BF10F8012B1F
S31508000BC811F8013B012A28BF9A42F7D0D01A704774
S31508000BD8034613F8012B002AFBD1181A0138704767
S31508000BE8000000000000000001F0FF01102A2BDBBE
S31508000BF810F0070F08D010F8013B013A8B422DD0A8
S31508000C0810F0070F42B3F6D1F0B441EA012141EAE0
S31508000C18014122F007047FF000070023F0E8025696
S31508000C28083C85EA010586EA010685FA47F5A3FA26
S31508000C3887F586FA47F6A5FA87F68EB9EED1F0BC97
S31508000C4801F0FF0102F0070232B110F8013B013A40
S31508000C5883EA010313B1F8D10020704701387047B9
S31508000C68002D06BF35460338073815F0010F07D19A
S31508000C78013015F4807F02BF013015F4C03F0130FA
S31508000C88F0BC0138704700BF10B5054C237833B956
S31508000C98044B13B10448AFF300800123237010BD39
S31508000CA8CC020020000000005C57020808B5034B78
S31508000CB81BB103490348AFF3008008BD00000000D4
S31508000CC8D00200205C57020800B595B02D4B0021CC
S31508000CD801911A6C42F080521A641B6C03F0805317
S31508000CE80193019B284B02911A6842F480421A60C4
S31508000CF81B6803F4804302930120029B4FF4803358
S31508000D08CDE908034FF480020223CDE90E324FF0ED
S31508000D18080C4FF4A872129308A80723CDE910C245
S31508000D28139301F0C7FF18B11848EE2103F0AEFD7A
S31508000D3802230F220021CDE903234FF4A053CDE95E
S31508000D48051303A84FF480530521079302F088F981
S31508000D5818B10E48FB2103F099FD02F01DFA4FF46D
S31508000D687A73B0FBF3F001F003FD042001F026FDC9
S31508000D78002211464FF0FF3001F0A6FC15B05DF8C9
S31508000D8804FB00BF0038024000700040745F020888
S31508000D98B0F86230013303F03F03A0F86230B0F8C8
S31508000DA86230B0F85E009BB298424FF0FF3018BF29
S31508000DB800207047B0F8F430B0F8F000181A00F0C0
S31508000DC83F007047B0F8F430B0F8F0209BB2934271
S31508000DD81ABFD0F8E830985C4FF0FF30704713B563
S31508000DE80DF10701044604F073F990B9B4F86030B8
S31508000DF8B4F85C20013303F03F03934209D0B4F8F2
S31508000E086020616D9DF8070092B29BB28854A4F8D9
S31508000E18603002B010BD0000012370B50374B0F944
S31508000E28E230013304460E4600F1940508D190F8DD
S31508000E38F8302BB1002380F8F830284604F0AEF9CC
S31508000E48B4F8F2104B1C03F03F03B4F8F62092B23C
S31508000E589342FAD0D4F8EC2028465654A4F8F2302F
S31508000E6804F024F918B90349284604F073F901204F
S31508000E7870BD00BF990D0008037C33B1B0F8F220A5
S31508000E88B0F8F6309BB29A42FAD1704700F11103CE
S31508000E98914208BF4FF0FF31A0F8E020C0F8E830CB
S31508000EA800F151020023A0F8F430C0E93B23A0F86A
S31508000EB8E210A0F8F630704770B54FF47A73164604
S31508000EC80022C0E90123164B03604FF6FF73A0F80A
S31508000ED8E230144B984204460D4614D1124B9A8CAC
S31508000EE8A0F8E2205B8CA0F8E030012E04BF4FF68C
S31508000EF8FF73A4F8E2302046B4F9E020B4F9E2100A
S31508000F08FFF7C4FF70BD0949284603F08DFC084958
S31508000F18A4F8E200284603F087FCA4F8E000E4E712
S31508000F28DC600208E8020020CA5F0208545E02086C
S31508000F38E45E0208B0F9E230013310B504460ED172
S31508000F4803685B69984794F8F83043B9012384F82D
S31508000F58F83004F19400BDE8104004F02FB910BD2C
S31508000F6802F00703023BDBB2042B2DE9F7430E46D2
S31508000F78C0F8FC1098BF1F4980F8F92098BFCC5CC8
S31508000F8802F0300388BF0024302B054626D10134E9
S31508000F984FF4C06712F0080F14BF4FF400594FF00A
S31508000FA80009082C21D0092C21D013484FF4C17107
S31508000FB803F06CFC05F1940831463B462246404648
S31508000FC8CDF8009004F05CF82846FFF7B3FF0B4904
S31508000FD8404603B0BDE8F04304F096B812F020077F
S31508000FE81CBF01344FF48067D4E70024E2E74FF4C6
S31508000FF88054DFE7CC6002086E600208E70D000837
S3150800100810B50446FFF796FFB4F8F420B4F8F030A4
S3150800101892B29A421FBFD4F8E820D05C013303F095
S315080010283F0314BFA4F8F0304FF0FF3010BD00009E
S31508001038024903480022FFF73FBF00BF00100140DE
S31508001048E8020020836810B504462BB1032201463E
S3150800105898470023C4E90233204610BD836810B5B3
S31508001068044613B1032201469847204610BD4B1E75
S31508001078032B9ABF880004384FF0FF3070470000EA
S315080010880139435C2BB1022907D8054B33F81100FF
S315080010987047032901D8034BF8E74FF0FF3070472C
S315080010A85A610208606102082DE9F04104460F46B4
S315080010B8FFF7DDFF431C054604D13F4840F24D11B2
S315080010C803F0E4FB7E1E032E28D83C4B13F8068053
S315080010D839462046FFF7D4FF013004D1364840F296
S315080010E8571103F0D3FB04EB07175837BB683BB116
S315080010F823696FEA08021A61DA6842EA0802DA60BE
S3150800110804EB46039B88013B0B2B4BD8DFE803F01F
S315080011181B1B1B1B0E0E1B1B4C4C4C2826484FF43E
S31508001128A9714FF0FF3803F0B1FBD1E7A35D04F1CD
S31508001138100029461BB1BDE8F04102F0C7BCBDE85E
S31508001148F04102F08BBCA35D04F1100029461BB1DF
S31508001158BDE8F04102F0A4BCBDE8F04102F05EBC6F
S31508001168294604F1100002F07BFC032E98BF144BA5
S31508001178256994BF9A574FF0FF3211462046FFF764
S315080011887FFF2B6A1843BB6828625BB1013A032ABA
S315080011989ABF0A4B9A5C4FF0FF32D3432B61EB6830
S315080011A81343EB60BDE8F081294604F11000BDE859
S315080011B8F04102F055BC00BFFC60020868610208ED
S315080011C86C610208036E10B5044653B150F8103F17
S315080011D86FF001021A61DA6842F00102DA6002F079
S315080011E841F920460121FFF75FFF20460221FFF754
S315080011F85BFF20460321FFF757FF20460421BDE879
S315080012081040FFF751BF036901399962704700001A
S315080012182DE9F0418CB00E46044690461F46FFF766
S3150800122826FF411C054604D14B4840F24D2103F0E0
S315080012382DFB013E04EB4603A3F804804FF6FF7323
S3150800124805932369D5B95B6B069300204FF6FF72A1
S315080012580123CDE90900CDE90123CDE9030007906B
S3150800126808900B90B8F10C0F1ED8DFE808F010109C
S3150800127816323537404244464E515300042D01D1A3
S315080012889B6BE1E7082D0CBFDB6B1B6CDCE7059055
S315080012982A4605A904F1100004E0102305932A46F6
S315080012A805A9E01802F05CFA7B1C0FD0384602F054
S315080012B851FFA8424AD12949384603F083FA2749F3
S315080012C8384603F0C3FAC0F30050A0550CB0BDE881
S315080012D8F08120230593DBE73023FBE760232A46C2
S315080012E805A904F11000059302F066FADCE77023F5
S315080012F8F5E75023EEE74023ECE701902A4601A9D3
S3150800130804F1100002F0F2FACEE702230193F5E79A
S315080013180A23FBE704F1100801A901902A4640466A
S3150800132802F0E4FA032E9ABF0D4B99574FF0FF3196
S3150800133804EB41030C225A8020460223CDE90133E7
S31508001348FFF795FE01A902464046DBE7024840F248
S31508001358B72103F09BFAB2E7FC600208C8590208ED
S315080013686C610208013903299ABF00EB410080889D
S315080013780020704703691A6819B142F080021A609A
S31508001388704722F08002FAE7F8B504460E46154675
S31508001398006903F02FFC2A46314601F095F92069C1
S315080013A803F08AFC0746206903F024FC874206D026
S315080013B8206903F081FC2A46314601F085F9C4E91B
S315080013C81465F8BD0269D36823F00103D360583061
S315080013D8FFF738BE006E003818BF01207047012194
S315080013E8103002F051B80000264A904203462ED023
S315080013F8B0F1804F2DD0A2F57C4290422BD002F551
S315080014088062904229D002F58062904227D04FF632
S31508001418FF701D4A934224D01C4A934223D01C4A83
S31508001428934222D002F57052934220D0194A934229
S315080014381FD0194A93421ED0184A93421DD0184AFB
S3150800144893421CD0174A934208BF0D2070470020C4
S31508001458DFE70120DDE70220DEE70320DFE70420D7
S31508001468E4E70520E5E70620E6E70720E7E708209A
S31508001478E8E7092070470A2070470B2070470C20B8
S31508001488704700BF000001400010004000140040EB
S31508001498000401400044014000480140001800408B
S315080014A8001C004000200040014670B5044651F86B
S315080014B8100FFFF799FF0546084603F009FB094A86
S315080014C8002342F8253004F15806E36004F1A8051C
S315080014D8B54204D0103D2846FFF7C0FDF8E7204678
S315080014E870BD00BFE8030020F8B50023036603674C
S315080014F8C0F88030C0F89030C0F8A03004460846D6
S315080015080D46FFF771FF4FF6FF739842064603D15B
S315080015181E482F2103F0BAF91D4A256104F10C0368
S3150800152842F8263000230D2204F11006C4E90C33CC
S31508001538C4E90E33C4E91033C4E9142384F82C30FB
S31508001548A36484F84C3084F84D30E460304603F0E0
S31508001558C7F904F1580504F1A80728461035FFF716
S3150800156871FDBD42F9D100234FF6FF72C4E9003375
S31508001578C4E90632C4E90833A36063618023A36219
S31508001588304602F09DF82046F8BD00BFFC60020808
S31508001598E803002030B587B014220546002101A8C3
S315080015A821F0B4FB0024694601A8009401F01AFE4C
S315080015B8286903F00FFC012809D0022815D00E481F
S315080015C840F2FF4103F062F9204607B030BD049C9B
S315080015D801F0E8FDB4F5C05F05D00AD824F48064A4
S315080015E8B4F5805FF1D14000EFE7059C01F0EAFD0C
S315080015F8F0E7B4F5E05FF5E7FC600208012A38B5BC
S3150800160805460C4607D0022A12D004B1013C2B69BC
S31508001618DC62EC6138BDFFF7BDFF0849B0FBF1F0A5
S3150800162844432B69210C99620131B4FBF1F4ECE7C8
S31508001638FFF7B0FFB0FBF4F4F3E700BF40420F0032
S31508001648036970B55C6A9D6A012905F1010503D02D
S3150800165802291CD0204670BDFFF79CFF064604FBEE
S3150800166805F0FEF7CFFE0EA3D3E90023FEF744FFE5
S31508001678044630460D46FEF7C5FE02460B4620468A
S315080016882946FFF763F8FFF70FFA0446E2E7FFF77C
S3150800169881FF6C43B0FBF4F4DCE700BFAFF30080CE
S315080016A80000000080842E412DE9F04180461D4641
S315080016B81446FFF7DCFCD8F810309E6A431C074628
S315080016C806F1010604D1264840F2F62103F0DEF8B1
S315080016D8822D34D01ED8102D0BD865B1D8F8103005
S315080016E8DA6A02FB04420124AC40013CB2FBF4F47A
S315080016F801E0812D19D0D8F81030DA6A4FF6FF7153
S315080017088A4203D1B4F5803F08BF1446F7B95C632B
S31508001718BDE8F081832DEED1D8F81030DA6A02FBDD
S3150800172804446422B4FBF2F4E5E74046FFF732FFC7
S315080017380C4AB0FBF2F04443B4FBF6F4DBE7404648
S31508001748FFF728FF7443B0FBF4F4D4E7042F01D15C
S315080017589C63DDE7082F0CBFDC631C64D8E700BF71
S31508001768FC60020840420F0010B5074C206810B10B
S31508001778043001F09DFE606A20B1BDE810400430CF
S3150800178801F096BE10BD00BFE8030020034B186899
S3150800179810B1043001F08CBE704700BFE803002082
S315080017A8034B586810B1043001F082BE704700BF79
S315080017B8E8030020034B986810B1043001F078BE9E
S315080017C8704700BFE8030020034BD86810B10430FF
S315080017D801F06EBE704700BFE8030020034B186986
S315080017E810B1043001F064BE704700BFE80300205A
S315080017F8034B586910B1043001F05ABE704700BF50
S31508001808E8030020034B986910B1043001F050BE74
S31508001818704700BFE8030020034BD86910B10430AD
S3150800182801F046BE704700BFE8030020FFF7F4BF83
S31508001838034B186A10B1043001F03ABE704700BF6E
S31508001848E8030020034B986A10B1043001F030BE53
S31508001858704700BFE8030020034BD86A10B104306C
S3150800186801F026BE704700BFE8030020034B586BFB
S3150800187810B1043001F01CBE704700BFE803002011
S3150800188838B5002383608B6804460D462BB10222BF
S315080018989847EB68E360AB68A360204638BD30B567
S315080018A887B002AD04462846FFF7EAFF95E8030025
S315080018B86B4683E8030094E8030085E8030093E889
S315080018C80300049BA268A360059B049284E80300AE
S315080018D8E268E36028460592FFF7C0FB204607B092
S315080018E830BD38B504460D46236E583013B1FFF798
S315080018F8D6FF38BDFFF7D3FFAB68002BF9D02369AD
S315080019086FF001021A61DA6842F00102DA60F0E75C
S31508001918826810B50AB920F083F8BDE81040C36894
S315080019281847000010B5044620B9074840F2264172
S3150800193802F0ACFF204602F0D1FF0068036E13B12F
S315080019485830FFF7E5FF10BDFC600208FFF7EABF4D
S3150800195838B5054620B9114840F2394102F096FFD4
S315080019682B7F013B072B11D8DFE803F0150410116C
S31508001978101010130224284602F0B0FF240100684C
S315080019885834204483680BB1FFF7C2FF38BD0324D7
S31508001998F1E70424EFE70124EDE700BFFC6002083D
S315080019A8FFF7D6BFFFF7D4BFF8B505460E46174664
S315080019B80024BC4207D02B68315D1B682846984727
S315080019C808B10134F5E72046F8BD13B504460846BC
S315080019D859B10191FFF7FCF8236801995B6802463B
S315080019E8204602B0BDE81040184702B010BD08B539
S315080019F8FFF7EBFF08BD03681B68184708B50249D7
S31508001A08FFF7E3FF08BD00BF7061020838B5054651
S31508001A18FFF7DBFF04462846FFF7F0FF204438BDEA
S31508001A2830B58BB000238DF82430012A98BF0A22D6
S31508001A3809AC0D46B1FBF2F101FB125303F0FF03A3
S31508001A48092B94BF30333733DBB2AA4204F8013D79
S31508001A58EFD92146FFF7B9FF0BB030BD2DE9F041A4
S31508001A6807460E4614462AB90368BDE8F0411B68BE
S31508001A78C9B218470A2A0DD100290CDA2D21FFF711
S31508001A88BAFF2246054671423846FFF7C9FF284479
S31508001A98BDE8F081D2B2BDE8F041FFF7C1BFFFF754
S31508001AA8DDBF38B50546FFF7D9FF04462846FFF7D0
S31508001AB8A5FF204438BD38B50546FFF7CFFF0446CD
S31508001AC82846FFF79BFF204438BD10B42AB9026898
S31508001AD85DF8044B1268C9B210475DF8044BD2B2D8
S31508001AE8FFF79EBF38B50546FFF7EFFF04462846B9
S31508001AF8FFF784FF204438BD2DE9F84F55EC104B05
S31508001B0806460F4610EE102A10EE100A2B462946EE
S31508001B18FEF78CFF38B14B493046FFF756FF824629
S31508001B285046BDE8F88F25F00049474B4FF0FF327D
S31508001B3820464946FEF77AFF48B9434B4FF0FF322D
S31508001B4820464946FEF754FF08B94049E4E7404BA2
S31508001B584FF0604220462946FEF75EFF08B13D4928
S31508001B68DAE73D4B4FF0604220462946FEF736FF36
S31508001B780028F4D10022002320462946FEF72EFF26
S31508001B88D0B12D213046FFF736FF05F100438246CE
S31508001B981D463249DFF8CC904FF0000B00204FF075
S31508001BA800085FFA8BF39F4208D942464B46FEF770
S31508001BB8CDFD0BF1010BF4E78246EAE722462B46F0
S31508001BC8FEF7E4FA0D460446FEF76EFF8046FEF772
S31508001BD819FC02460B4620462946FEF7D5FA0A227C
S31508001BE804460D4630464146FFF71AFF824427B198
S31508001BF81B493046FFF7E9FE8244DFF868904FF044
S31508001C080008013FFFB2FF2F8AD04B4642462046BE
S31508001C182946FEF771FC0D460446FEF71DFF0A2203
S31508001C28014683463046FFF719FF82445846FEF7B1
S31508001C38F9FB02460B4620462946FEF7A5FA04464E
S31508001C480D46DEE773610208FFFFEF7F776102083A
S31508001C58FFFFEF417B610208FFFFEFC10000E03F8D
S31508001C683780020800002440C9B2FFF745BF10B5FF
S31508001C78044600F06BFAE06023682046DB6898475C
S31508001C88002808DA00F062FAE368C01AA3689842DE
S31508001C98F2D34FF0FF3010BDF8B506460D46174685
S31508001CA80024BC4207D03046FFF7E1FF031E02DBDB
S31508001CB82B550134F5E72046F8BD2DE9F0410746CE
S31508001CC8884616461D4673B100243846FFF7CFFFE7
S31508001CD8031E05DB434503D033550134A542F4D129
S31508001CE82046BDE8F0811C46FAE703681847012A2A
S31508001CF803D0022A03D0002070470160FBE70B686F
S31508001D080360F8E708B5044B2BB10448FFF752F807
S31508001D1808B1AFF3008008BD00000000E802002003
S31508001D282DE9F04F57EC106BA5B0044688461546C2
S31508001D3810EE100A002200233946FEF74FFE002847
S31508001D486DD007F100431F464FF0010A3F494FF08F
S31508001D5800090020C84564DC02460B463046394669
S31508001D68FEF714FA0F460646FEF79EFE8146FEF76C
S31508001D7849FB02460B4630463946FEF705FA0F4632
S31508001D88334906464FF0000B0020D84550DC32464A
S31508001D983B46FEF7B1FBFEF75FFE434600904A4610
S31508001DA8BAF1000F4BD02B490026284621F0B4F883
S31508001DB831467D2204A8039620F0A8FFB442284697
S31508001DC8BCBF64420126FEF703FFA04223D2802245
S31508001DD8202103A820F09AFF2846FEF7F9FE24AB2F
S31508001DE8241A1C44002304F8843C56BB2846FEF7EC
S31508001DF8EFFE013020F044FF2946044621F0E4F8B6
S31508001E0803A9284621F0E0F82146284621F0C0F81B
S31508001E18204620F03DFF284625B0BDE8F08F8246CB
S31508001E2894E70D4B0022FEF791FC09F1010991E7A9
S31508001E38094B0022FEF760FB0BF1010BA5E70749E2
S31508001E48B2E703A9284621F0A3F8E4E70000E03F33
S31508001E580000F03F7F610208000024408061020804
S31508001E6802F04ABB704708B5032000F01BFCBDE822
S31508001E780840FFF7F5BF08B5AFF3008004F068FF20
S31508001E8805F036F8FFF73EFFFAE720F0F9BE20F02E
S31508001E98FFBE00000F2803D9512808D8034601E0D9
S31508001EA800F123030B4A32F913305A1C09D1552875
S31508001EB809D056280AD0532840F2011318BF4FF004
S31508001EC8FF33184670474FF48173FAE740F2031355
S31508001ED8F7E700BFCA5F0208DFF834D0002103E03D
S31508001EE80C4B5B58435004310B480C4B42189A422A
S31508001EF8F6D30B4A02E0002342F8043B094B9A4200
S31508001F08F9D302F0C5FC20F097FEFFF7B4FF704737
S31508001F180000012080B5050800000020CC0200203A
S31508001F28CC020020FCE90020FEE791420FD008D930
S31508001F38891A01238B40984208D30130C8400138D2
S31508001F48704720B10130511A8840F8E700207047D9
S31508001F5810B5FFF79FFF431C0AD0064C216802F00C
S31508001F687DF9054B21681A68BDE81040FFF7DDBF03
S31508001F78002010BD000000200800002051282DE987
S31508001F88F04104460F4641D8214B33F910506A1CD4
S31508001F983CD02049DFF88C80284602F06CFB0646C0
S31508001FA800B3C5F303111C4A52F8210005F00F04C3
S31508001FB820FA04F3DB075FBF0123A340034342F873
S31508001FC82130164BD8F800101C6838462246FFF709
S31508001FD8ACFF13490246E3B228460968BDE8F04152
S31508001FE802F0E0B92046012100F01EF8D8F80010E2
S31508001FF838460822FFF799FF7F2898BF31462046BA
S3150800200888BF0121BDE8F04100F05CB8BDE8F08161
S31508002018CA5F0208C85902082004002004000020E4
S315080020280C0000201000002051282DE9F0410E462A
S315080020383DD8204B33F91040621C38D01E4DC4F3E6
S31508002048031704F00F0855F8273023FA08F3DB07B7
S3150800205810D51A49204602F00EFB10B1204602F0A8
S31508002068F3F9012303FA08F255F8273023EA02039D
S3150800207845F82730052E14D8DFE806F0030F090BB4
S315080020880D1100212046BDE8F04102F003BB1021DE
S31508002098F8E72021F6E70321F4E70121F2E7092109
S315080020A8F0E7BDE8F0410648492102F0EFBBBDE874
S315080020B8F08100BFCA5F020820040020C859020838
S315080020C88A61020851289ABF0C4B33F910304FF031
S315080020D8FF33C3F30312082A98BF094803F00F030E
S315080020E898BF50F82220074888BF002250F82330A6
S315080020F809B1936170471B04FBE700BFCA5F020872
S315080021081C0000205462020851289ABF0C4B33F968
S3150800211810304FF0FF33C3F30312082A0DD80949C4
S3150800212803F00F0351F822200749126951F82330A2
S3150800213893430CBF01200020704700231B69FFDE6C
S31508002148CA5F02081C0000205462020802F0ACB9F3
S3150800215838B5044648B102F0A7F90546FFF782FEE6
S3150800216802F0A2F9431BA342F8D338BD7047000012
S3150800217838B50E4A0E4B054618784FF47A73B3FBF2
S31508002188F0F31068B0FBF3F000F0F2FA044658B919
S315080021980F2D09D8024629464FF0FF3000F094FA69
S315080021A8044B20461D6038BD0120FCE7440000208A
S315080021B8140000201800002008B50B4B1A6842F4D2
S315080021C800721A601A6842F480621A601A6842F441
S315080021D880721A60032000F065FA0020FFF7C8FF2E
S315080021E8FFF7C4FF002008BD003C0240034A044B21
S315080021F811681B780B441360704700BFC8E90020B4
S3150800220814000020014B1868704700BFC8E9002071
S3150800221838B50446FFF7F6FF631C1CBF054B1B7849
S31508002228054618BFE418FFF7EDFF431BA342FAD388
S3150800223838BD00BF1400002038B50446002800F051
S315080022489B80056C25B901F095FF656484F83C50B8
S31508002258236CDB0600F18E80236C23F4885323F065
S31508002268020343F002032364444B5A6822F44032BB
S315080022785A605A6861680A435A60236821695A6825
S3150800228822F480725A605A6842EA01225A605A68E9
S31508002298A16822F040725A605A680A435A609A68D6
S315080022A8E16822F400629A609A680A439A60344997
S315080022B8A26A8A4252D0996821F070619960996831
S315080022C80A439A609A68E16A22F040529A609A68C4
S315080022D80A439A609A6822F002029A609A68217EEE
S315080022E842EA41029A6094F82020002A3ED05A68A9
S315080022F8616A42F400625A605A6822F460425A6077
S315080023085A68013942EA41325A60DA6AE16922F4BE
S315080023187002DA62DA6A013942EA0152DA629A68BE
S3150800232822F400729A609A6894F8301042EA4122B8
S315080023389A609A68616922F480629A609A680020AD
S3150800234842EA81229A606064236C23F0030343F00F
S3150800235801032364002384F83C3038BD9A6822F0C8
S3150800236870629A609A6822F04052B2E75A6822F474
S315080023780062C9E70120EDE70120EEE700230140E6
S315080023880100000F38B50446A0B1036C43F00203F8
S31508002398036403689A6822F001029A609D6815F03A
S315080023A8010503D101F02EFF65642564002084F831
S315080023B83C0038BD0120FCE782B00023019390F861
S315080023C83C30012B60D0012380F83C3003689A68BA
S315080023D8D20705D59A68D10714D4002002B07047E9
S315080023E89A682A4942F001029A60294A1268B2FB99
S315080023F8F1F202EB42020192019A002AEAD0019A06
S31508002408013AF8E7026C22F4E06222F0010242F48B
S31508002418807202645A68520541BF026C22F440521F
S3150800242842F480520264026C12F480521CBF426C59
S3150800243822F006024264002280F83C206FF022024D
S315080024481A60144A516811F01F0F134919D18B42A3
S3150800245807D001F580718B420CD1526812F01F0F14
S31508002468BBD1986810F04050B7D19A6842F08042BC
S315080024789A60B3E709498B42AFD1526812F0100F38
S31508002488EEE78B42A9D1ECE70220A7E740420F0006
S31508002498440000200023014000200140002201409A
S315080024A890F83C30012B14D003689A6822F0010290
S315080024B89A609B68DB0707D4036C23F4885323F0D8
S315080024C8010343F001030364002380F83C301846EF
S315080024D870470220704703689A68520570B5044623
S315080024E80D460BD59B68DE0508D5036C43F020031B
S315080024F80364002380F83C30012070BDFFF782FE94
S31508002508064623681A6891070CD56FF012021A60F6
S31508002518226C42F4007222649A6812F0405F13D063
S315080025280020EAE7681CEDD045B9236C43F004039C
S315080025382364002384F83C300320DEE7FFF762FEB5
S31508002548801BA842DDD9F0E7207E0028E8D1DA6AA0
S3150800255812F4700F02D09B685A05E1D4236C23F451
S3150800256880732364236CDB04DAD4236C43F00103F9
S315080025782364C2E70368D86C70470000F7B50023E0
S31508002588019390F83C30012B66D0012380F83C3043
S315080025980D6803688E68092DACB231D904EB44027C
S315080025A8DF681E3A4FF0070C0CFA02FC27EA0C07FC
S315080025B8DF60DF6806FA02F23A43DA6049680629F4
S315080025C801EB81022CD8596B053A1F26964021EA59
S315080025D806015963596B04FA02F20A435A632C4AEC
S315080025E8934207D1122D39D1D2F8043343F4800324
S315080025F8C2F80433002380F83C30184603B0F0BD0F
S315080026081F6905EB45024FF0070C0CFA02FC27EA8E
S315080026180C071F611F6906FA02F23A431A61CDE7E9
S315080026280C294FF01F010BD81E6B233A914026EA56
S3150800263801011963196B04FA02F20A431A63CEE711
S31508002648DE6A413A914026EA0101D962D96A04FA52
S3150800265802F20A43DA62C2E70220CFE7A5F11003BD
S31508002668012BC7D80B4A5368102D43F4000353604F
S31508002678C0D1094B094A1B68B3FBF2F20A23534334
S315080026880193019B002BB5D0019B013BF8E700BFDE
S3150800269800200140002301404400002040420F006A
S315080026A8006C70470749CA6822F4E06203021204FC
S315080026B803F4E063120C134343F0BF6343F4003397
S315080026C8CB60704700ED00E0164B30B5DC68C4F304
S315080026D80224C4F10705231D042D28BF0425062B4B
S315080026E84FF0FF338CBF033C002403FA05F521EAB3
S315080026F80501A34022EA0302A140002841EA020391
S31508002708ACBF00F16040084A4FEA0313B8BF00F0AF
S315080027180F00DBB2AABF00F56140135480F80033F6
S3150800272830BD00BF00ED00E014ED00E0002808DB2E
S315080027384209012300F01F0003FA00F0014B43F891
S315080027482200704700E100E000280DDB430901225A
S3150800275800F01F0002FA00F02033044A42F823006A
S31508002768BFF34F8FBFF36F8F704700BF00E100E0DC
S315080027780138B0F1807F0AD2064B074A5860F02123
S3150800278882F823100020072298601A6070470120F3
S31508002798704700BF10E000E000ED00E0002809DB04
S315080027A84309012200F01F0002FA00F06033024ACA
S315080027B842F82300704700BF00E100E0044B1A689E
S315080027C804280CBF42F0040222F004021A6070477B
S315080027D810E000E008B502F02FFE08BD036810B542
S315080027E8084C0246D9B210391820B1FBF0F0205C23
S315080027F8D06523F47F7020F003005F2988BF043072
S31508002808906510BDE661020870B50446FFF7FAFC44
S315080028180546002C73D0002384F834302268022336
S3150800282884F83530136823F00103136021680B68B0
S31508002838D8072FD40B68334DA0691D40D4E9012366
S315080028481343E26813432269134362691343E2692F
S3150800285803431343226A1343626A042A43EA0503B5
S3150800286802BFD4E90B5635432B430B604B69042A40
S3150800287823F0070343EA020333D1A26AE56A13433E
S315080028887DB390B9012A21D032F0020229D1EA0192
S3150800289827D51EE0FFF7B6FC401B0528C6D9202316
S315080028A86365032084F8350070BDB0F5005F14D160
S315080028B8032A16D801A050F822F000BFDB28000822
S315080028C897280008DB280008D5280008B5F1C07F36
S315080028D807D1402363650120E4E7022AF9D9032AC8
S315080028E8D5D04B612046FFF779FFE26D3F23934029
S315080028F8836000200123606584F83530D4E7012019
S31508002908D2E700BF3F8010F090F83530022B03D08D
S3150800291880234365012070470268052380F835300F
S31508002928136823F00103136000207047094910B59E
S315080029380C6924F440740C610C6944F440740C6105
S315080029480C6944F001040C610260BFF36F8F4360A1
S3150800295810BD00BF003C0240074B1A6922F44072BA
S315080029681A611A6942F400721A611A6942F0010278
S315080029781A610160704700BF003C0240074B1A699C
S3150800298822F440721A611A6942F480721A611A6945
S3150800299842F001021A610180704700BF003C0240FC
S315080029A81A4BDA68D20606D51949CA6942F01002DE
S315080029B8CA611022DA60DA68900606D51449CA6927
S315080029C842F00802CA612022DA60104BDA6851061A
S315080029D806D50F49CA6942F00402CA614022DA607C
S315080029E8DA68120606D50A49CA6942F00202CA61B5
S315080029F88022DA60054AD3689B0706D50449CB695D
S31508002A0843F02003CB610223D3607047003C0240A1
S31508002A18CCE90020064B1A69002ABFBF054A5A6046
S31508002A2802F188325A60BABF1869C00F0020704789
S31508002A38003C024023016745034A136943F00043F3
S31508002A4813610020704700BF003C0240014BD8695B
S31508002A58704700BFCCE90020F8B5124B124D00228A
S31508002A680446DA61FFF7CEFB2F460646EB68DA031B
S31508002A780CD4EB68DB0744BF0123EB60F86810F059
S31508002A88F20007D0FFF78CFF012003E0611CEDD0A8
S31508002A980CB90320F8BDFFF7B5FB801BA042E5D9A2
S31508002AA8F7E700BFCCE90020003C0240F7B5204E06
S31508002AB801931446327E012A07460D4635D001226F
S31508002AC84CF250303276FFF7C7FFB8B9019BCFB939
S31508002AD8184B186920F4407018611A691A61186940
S31508002AE8E4B240F0010018612C704CF25030FFF740
S31508002AF8B3FF104A136923F00103136100233376E1
S31508002B0803B0F0BD012F04D1A1B22846FFF736FF5E
S31508002B18EBE7022F04D121462846FFF71DFFE4E715
S31508002B2822462846FFF702FFDFE70220E8E700BF4C
S31508002B38CCE90020003C0240074B196921F4407192
S31508002B481961196941F0040119611A6942EA0020F4
S31508002B5840F4803018617047003C024039B10129B9
S31508002B681CD002290CBF4FF400714FF440710D4B6D
S31508002B781A6922F440721A611A69114319611A69A5
S31508002B8822F0F8021A611A6942EAC00040F0020007
S31508002B9818611A6942F480321A6170474FF48071D5
S31508002BA8E5E700BF003C0240144B1A6891050FD5AB
S31508002BB81A6822F400721A601A6842F400621A60E7
S31508002BC81A6822F400621A601A6842F400721A60D7
S31508002BD80A4B1A6852050FD51A6822F480621A60D9
S31508002BE81A6842F480521A601A6822F480521A60E7
S31508002BF81A6842F480621A60704700BF003C0240B7
S31508002C082DE9F843234E337E012B054688463FD0E7
S31508002C1801234CF250303376FFF71EFF0446A8B955
S31508002C284FF0FF33C8F800302B68012B13D1287CE6
S31508002C38FFF782FF4CF25030FFF70EFF164A13696A
S31508002C4823F0040304461361FFF7AEFF0023337627
S31508002C582046BDE8F883AF68DFF83C90D5E902233B
S31508002C681344BB42F0D9297C3846FFF777FF4CF264
S31508002C785030FFF7F1FED9F8103023F0FA03C9F8F7
S31508002C88103018B1C8F800700446DDE70137E5E7E3
S31508002C980224DDE7CCE90020003C0240044A5169D9
S31508002CA8014208B502D0506101F030FC08BD00BFEA
S31508002CB8003C01402DE9F341044640B30368DD07AB
S31508002CC810D4236898075ED423681A0700F1A080F1
S31508002CD823685B0700F1BE80A069002840F01F81C1
S31508002CE800202BE0A64B9A6802F00C02042A07D0AB
S31508002CF89A6802F00C02082A0BD15A68510208D5BC
S31508002D089F4B1B689A03DCD56368002BD9D1012031
S31508002D1814E06268B2F5803F13D11A6842F480322B
S31508002D281A60FFF76FFA964E054633689B03C8D4B0
S31508002D38FFF768FA401B6428F7D9032002B0BDE8F4
S31508002D48F0818F4DB2F5A02F2B6807D143F4802365
S31508002D582B602B6843F480332B60E2E723F4803337
S31508002D682B602B6823F480232B60002AD9D1FFF720
S31508002D7849FA06462B689F03A3D5FFF743FA801B33
S31508002D886428F7D9D9E77E4B9A6812F00C0F07D052
S31508002D989A6802F00C02082A11D15B685E020ED402
S31508002DA8774B1A68950702D5E268012AAFD11A68DF
S31508002DB8216922F0F80242EAC1021A6084E7E26849
S31508002DC8704BB2B101221A60FFF71CFA6C4D064621
S31508002DD82B68980707D52B68226923F0F80343EA76
S31508002DE8C2032B6070E7FFF70DFA801B0228EFD99C
S31508002DF8A3E71A60FFF706FA614E0546336899078E
S31508002E087FF562AFFFF7FEF9401B0228F6D994E76B
S31508002E1862695D4B7AB101221A60FFF7F3F9584ED9
S31508002E280546736F9F073FF553AFFFF7EBF9401B4E
S31508002E380228F6D981E71A60FFF7E4F9504E0546E5
S31508002E48736F98077FF544AFFFF7DCF9401B022834
S31508002E58F6D972E74A4B1A6C12F0805228D10192B9
S31508002E681A6C42F080521A641B6C03F08053019363
S31508002E78019B0127454D2B68D9051BD5A368404DED
S31508002E88012B27D12B6F43F001032B67FFF7BAF9FC
S31508002E983B4E054641F28838336F9B0739D5002FD4
S31508002EA83FF41AAF364A136C23F08053136413E7BA
S31508002EB80027DFE72B6843F480732B60FFF7A2F936
S31508002EC806462B68DA05D9D4FFF79CF9801B022831
S31508002ED8F7D932E7052B04D12B6F43F004032B6788
S31508002EE8D0E72A6F22F001022A672A6F22F0040225
S31508002EF82A67002BCAD1FFF785F941F288380646B2
S31508002F082B6F9807CBD5FFF77DF9801B4045F7D976
S31508002F1813E7FFF777F9401B4045BDD90DE7184D6C
S31508002F28AB6803F00C03082B47D0194E0023022878
S31508002F38336035D1FFF766F907462B68990129D416
S31508002F48D4E907321343626A43EA8213E26A43EA18
S31508002F580263A26A5208013A43EA02436B600123F4
S31508002F683360FFF74FF9064D04462B689A013FF57B
S31508002F78B7AEFFF747F9001B0228F6D9DDE600BF0A
S31508002F880038024000004742800E47420070004061
S31508002F9860004742FFF736F9C01B0228CDD9CCE6B0
S31508002FA8FFF730F904462B689B017FF599AEFFF7C2
S31508002FB829F9001B0228F6D9BFE601283FF4BEAE58
S31508002FC8AB68E26903F4800191427FF4A0AE216AF6
S31508002FD803F03F028A427FF49AAE616A47F6C072E6
S31508002FE81A408A427FF493AEA16A03F440328A42B1
S31508002FF87FF48DAEE26A03F0706393423FF470AED5
S3150800300885E600BF134908B58B6803F00C03042B43
S315080030181CD0082B1CD14A684B68496813F48003EE
S3150800302814BF0D480D48C1F3881118BF002302F0D4
S315080030383F02A1FB0001FDF7A7FD064B5B68C3F33A
S31508003048014301335B00B0FBF3F008BD0248FCE717
S315080030580248FAE70038024000127A000024F40011
S315080030682DE9F0410D46044610B90120BDE8F08166
S31508003078444B1A6802F00F028A4228D32268970737
S315080030882DD4D00741D43F4B1A6802F00F02AA4242
S3150800309866D8226851076CD4130707D53A4A2169B6
S315080030A8936823F4604343EAC1039360FFF7AAFFD2
S315080030B8354B364A9B68C3F30313D35CD840344B65
S315080030C81860344B1868FFF753F80020CEE7CAB2E1
S315080030D81A701B6803F00F038B42C6D1CEE72A4B3A
S315080030E812F0040F1EBF996841F4E051996016075B
S315080030F842BF996841F4604199602349A0688B6882
S3150800310823F0F00303438B60BBE762681E4B012A72
S315080031181CD11B6813F4003FA7D01B4EB36823F0D5
S3150800312803031343B360FFF76DF841F2883807467F
S31508003138B368626803F00C03B3EB820FA3D0FFF7FA
S3150800314861F8C01B4045F3D903208FE7911E012972
S315080031581B6802D813F0007FDEE713F0020FDBE7DF
S31508003168EAB21A701B6803F00F03AB427FF47DAF0F
S315080031788FE70549E0688B6823F4E05303438B60BF
S315080031888AE700BF003C0240003802409462020801
S315080031984400002018000020014B1868704700BF3B
S315080031A844000020044B054A9B68C3F38223D35C7A
S315080031B8034A1068D840704700380240A4620208DB
S315080031C844000020044B054A9B68C3F34233D35C8A
S315080031D8034A1068D840704700380240A4620208BB
S315080031E8440000200F2303600B4B9A6802F0030281
S315080031F842609A6802F0F00282609A6802F4E05225
S31508003208C2609B68DB0803F4E0530361034B1B6841
S3150800321803F00F030B60704700380240003C024079
S3150800322803689A68D20410B504460AD5DB68D90536
S3150800323807D501F019FB2268D368DBB263F4C073BB
S31508003248D36023689A6892040BD5DB689B0508D572
S31508003258204600F00FF82268D368DBB263F42073BF
S31508003268D360034B4FF400325A610123637710BDCC
S31508003278003C01407047704710B50446002836D010
S315080032880023836290F8513003F0FF021BB980F8D7
S315080032985020FFF7F0FF2168A269022384F851300D
S315080032A80B6823F040030B60D4E901300343E06858
S315080032B803432069034360690343E0690343206ABB
S315080032C80343A06A034302F4007003430B60120C1D
S315080032D8636A02F004021A434A60CB6923F400635E
S315080032E8CB6100200123606584F8513010BD0120A8
S315080032F8FCE7704770B50E461546044610B390F8B5
S31508003308493003F0FF021BB980F84820FFF7F1FFA0
S3150800331804F10801206800F01DFEA26820683146FD
S3150800332800F044FE236BA2686068294600F05CFE3C
S31508003338A168226852F8213043F0010342F8213087
S31508003348002070BD0120FCE7036A23F0010303622D
S31508003358036A70B5446882690D6822F073022A43C5
S315080033688D6823F002032B430E4DA84202D00E4E59
S31508003378B04210D1CE6823F008033343A84223F09D
S31508003388040302D0084DA84205D1D1E9055624F40C
S31508003398407435432C43446082614A684263036239
S315080033A870BD00BF0000014000040140036A23F411
S315080033B880730362036A70B54468C2690D6822F0AF
S315080033C873022A438D6823F4007343EA0523114DD3
S315080033D8A84203D005F58065A84214D1CD6823F420
S315080033E8006343EA05230B4DA84223F4806303D000
S315080033F805F58065A84206D1D1E9055624F4405456
S31508003408354344EA05144460C2614A68C2630362E4
S3150800341870BD00BF00000140036A23F480530362AD
S31508003428036A30B54468C2690D6822F4E64242EA7E
S3150800343805228D6823F4005343EA0533084DA8424C
S3150800344803D005F58065A84204D14D6924F4804463
S3150800345844EA85144460C2614A680264036230BD5E
S3150800346800000140022380F83D3003689A6802F09C
S315080034780702062A1EBF1A6842F001021A600123CB
S3150800348880F83D300020704790F83C30012B4FF00B
S31508003498020309D080F83D3003685961012380F892
S315080034A83D30002380F83C3018467047704770470F
S315080034B803681A69910710B504460ED5DA689207A3
S315080034C80BD56FF002021A61012202779B699B07E6
S315080034D877D0FEF767FA0023237723681A69500717
S315080034E810D5DA6851070DD56FF004021A61022261
S315080034F822779B6913F4407F204668D0FEF752FA74
S315080035080023237723681A6912070FD5DA68100784
S315080035180CD56FF008021A6104222277DB6999072D
S3150800352820465AD0FEF73EFA0023237723681A69FD
S31508003538D20610D5DA68D0060DD56FF010021A61D2
S3150800354808222277DB6913F4407F20464BD0FEF722
S3150800355829FA0023237723681A69D10708D5DA6870
S31508003568D20705D56FF001021A612046FEF7EEF973
S3150800357823681A69100608D5DA68110605D56FF0A2
S3150800358880021A61204600F0A4FA23681A695206CE
S3150800359808D5DA68500605D56FF040021A61204644
S315080035A8FFF785FF23681A69910622D5DA68920615
S315080035B81FD56FF0200220461A61BDE8104000F0BA
S315080035C887BAFEF7EDF92046FFF770FF83E7FEF79F
S315080035D8E7F92046FFF76AFF92E7FEF7E1F9204682
S315080035E8FFF764FFA0E7FEF7DBF92046FFF75EFF63
S315080035F8AFE710BD304A0368904212D0B0F1804F49
S315080036080FD0A2F57C4290420BD002F58062904218
S3150800361807D002F58062904203D002F578429042BC
S3150800362819D14A6823F070031343234A904229D0D4
S31508003638B0F1804F26D0A2F57C42904222D002F5FE
S31508003648806290421ED002F5806290421AD002F536
S315080036587842904216D0194A904213D002F58062F1
S3150800366890420FD002F5806290420BD0A2F59832AC
S31508003678904207D002F58062904203D002F5806234
S31508003688904203D1CA6823F4407313434A6923F066
S315080036988003134303608B68C3620B688362064B17
S315080036A8984203D003F58063984201D10B690363F6
S315080036B801234361704700BF0000014000400140F4
S315080036C810B50446A0B190F83D3003F0FF021BB9C7
S315080036D880F83C2001F056FB0223206884F83D3028
S315080036E8211DFFF787FF012384F83D30002010BD10
S315080036F80120FCE7036A23F010030362036A70B526
S31508003708446882690D6822F4E64242EA05228D6811
S3150800371823F0200343EA0513104DA84203D005F504
S315080037288065A84214D1CD6823F0800343EA0513BF
S315080037380A4DA84223F0400303D005F58065A84240
S3150800374806D1D1E9055624F44064354344EA85048C
S31508003758446082614A688263036270BD0000014062
S3150800376810B590F83C30012B04464FF0020010D0F3
S315080037780123082A84F83C3084F83D0018D009D873
S3150800378872B1042A10D00123002084F83D3084F849
S315080037983C0010BD0C2AF6D12068FFF73DFEF2E77B
S315080037A82068FFF7D1FDEEE72068FFF7A3FFEAE7F1
S315080037B82068FFF7FBFDE6E738B590F83C30012BA3
S315080037C804464FF0020010D00123082A84F83C303A
S315080037D884F83D003FD009D8DAB1042A2AD0012353
S315080037E8002084F83D3084F83C0038BD0C2AF6D110
S315080037F82068FFF711FE23680969DA6942F400624E
S31508003808DA61DA6922F48062DA61DA6942EA01225F
S3150800381830E02068FFF798FD236809699A6942F03D
S3150800382808029A619A6922F004029A619A690A4317
S315080038389A61D4E72068FFF75DFF236809699A69E2
S3150800384842F400629A619A6922F480629A619A69D6
S3150800385842EA0122ECE72068FFF7A8FD2368096910
S31508003868DA6942F00802DA61DA6922F00402DA61F2
S31508003878DA690A43DA61B2E770B5046A1A4E24F0BF
S3150800388801040462B0428469056A29D0B0F1804F00
S3150800389826D0A6F57C46B04222D006F58066B04208
S315080038A81ED006F58066B0421AD006F57846B042AC
S315080038B816D006F57056B04212D0A6F59436B04220
S315080038C80ED044F001021B01DBB222F0F0021A43C3
S315080038D801F00A0125F00A0319438261016270BDE5
S315080038E824F003042243EEE700000140F8B590F8F7
S315080038F83C30012B04460E4615464FF002001AD0F6
S31508003908012384F83D0084F83C30D1E90012206888
S31508003918F3688DB9FFF7B0FF2368B1689A6922F092
S315080039280C029A619A690A439A610123002084F86D
S315080039383D3084F83C00F8BD042DB66822D1056AE6
S3150800394825F0100505628769D0F820E027F4407C41
S315080039581D034CEA022C09012CF4704CADB22EF06A
S31508003968A00E01F0A00145EA0C0541EA0E018561A1
S315080039780162836923F440638361836943EA0626FF
S315080039888661D2E7082D056A1CD125F4807505627B
S31508003998C769056A27F0030717431B010902DBB243
S315080039A827F0F00725F4206501F420611F43294311
S315080039B8C7610162C36923F00C03C361C3691E4367
S315080039C8C661B2E725F480550562C569076A25F414
S315080039D8407545EA02251B03090325F470459BB281
S315080039E827F4204701F420412B433943C361016278
S315080039F8C36923F44063C361C36943EA0626DFE75C
S31508003A08036A01F01F0110B501248C4023EA040358
S31508003A180362036A8A401A43026210BD10B5044657
S31508003A2801220068FFF7ECFF23680B4A934203D08C
S31508003A3802F58062934203D15A6C42F400425A64F2
S31508003A489A6802F00702062A1EBF1A6842F001029F
S31508003A581A60002010BD00BF00000140FFF7DEBF56
S31508003A6810B5044601220068FFF7CAFF23689A685A
S31508003A7802F00702062A1EBF1A6842F001021A60F7
S31508003A88002010BD036A01F01F0110B504248C40FC
S31508003A9823EA04030362036A8A401A43026210BDD2
S31508003AA810B5044604220068FFF7ECFF23685A6C31
S31508003AB842F400425A649A6802F00702062A1EBFB0
S31508003AC81A6842F001021A60002010BDFFF7E8BF25
S31508003AD8704770470368DA6822F49072DA605A69A0
S31508003AE822F001025A61202380F83A307047000014
S31508003AF838B50368C1681A69044622F440520A436D
S31508003B081A612569A268D968C0692A43656921F4D2
S31508003B1816412A4321F00C0102430A43DA605A691E
S31508003B28A16922F440720A43B0F5004F5A61254A42
S31508003B3828D1934203D002F5806293421FD1FFF73A
S31508003B4841FB6268002392184FF019015B41A0FBFC
S31508003B580101FDF719F86421B0FBF1F501FB15031E
S31508003B68DB003233B3FBF1F303F007025B0021688D
S31508003B7802EB051203F4F87313448B6038BDFFF79C
S31508003B8811FBDEE7934202D00F4A934217D1FFF79B
S31508003B9819FB636819219A00A0FB01019B0FFCF722
S31508003BA8F3FF6422B0FBF2F102FB110324681B0140
S31508003BB83233B3FBF2F303EB0113A360DEE7FFF737
S31508003BC8F1FAE6E70010014000140140704710B505
S31508003BD8044640B390F8393003F0FF021BB980F861
S31508003BE83820FFF7F3FF2268242384F83930D3688E
S31508003BF823F40053D3602046FFF77AFF23681A692F
S31508003C0822F490421A615A6922F02A025A61DA683D
S31508003C1842F40052DA6000202023E06384F8393041
S31508003C2884F83A3010BD0120FCE710B5044660B3A5
S31508003C3890F8393003F0FF021BB980F83820FFF7EF
S31508003C48C5FF2268242384F83930D36823F400533F
S31508003C58D3602046FFF74CFF23681A6922F490427E
S31508003C681A615A6922F022025A615A6942F0080210
S31508003C785A61DA6842F40052DA6000202023E063C9
S31508003C8884F8393084F83A3010BD0120FCE790F8FA
S31508003C983930202B18D1A9B1A2B190F83830012BA8
S31508003CA812D0C28401628284016800232122C36378
S31508003CB880F8383080F83920CA6842F08002CA602D
S31508003CC818467047012070470220704790F83A3026
S31508003CD8202B20D1E9B1E2B190F83830012B1AD05F
S31508003CE8C285828500232222C36380F83A200268A7
S31508003CF880F838308162D16841F48071D1605169A1
S31508003D0841F001015161D16841F02001D16018469E
S31508003D187047012070470220704710B590F83A306E
S31508003D28222B33D181680469836A0268B1F5805FFA
S31508003D3823D15268ECB9C2F3080223F8022B83622E
S31508003D48C48D013CA4B2C4858CB90368DA6822F02C
S31508003D582002DA60DA6822F48072DA605A6922F098
S31508003D6801025A61202380F83A3001F037FA002018
S31508003D780DE0D2B223F8012BE1E7591C526881629B
S31508003D880CB91A70DCE702F07F02FAE7022010BDC8
S31508003D9803681A68D96870B516075D69044607D1B5
S31508003DA896065CD58D065AD5BDE87040FFF7B5BFAF
S31508003DB805F0010001F49075054350D0D60705D5DE
S31508003DC8CD0542BFE36B43F00103E363530704D50C
S31508003DD818B1E36B43F00203E363960704D518B1F9
S31508003DE8E36B43F00403E363150707D501F02003E3
S31508003DF803431EBFE36B43F00803E363E36B4BB36C
S31508003E08900604D5890602D52046FFF786FF23685B
S31508003E185B69E56B03F0400305F008051D4320467A
S31508003E2819D0FFF757FE23685A6952060FD55A69FB
S31508003E38606B22F040025A6148B1264B0365FEF7CB
S31508003E4863FD38B1606BBDE87040036D18472046BE
S31508003E5801F0DAF970BD01F0D7F9E563FAE7160655
S31508003E6828D50D0626D594F83920212AF2D1A16835
S31508003E78226AB1F5805F18D11188C1F30801596023
S31508003E88216981B902322262E28C013A92B2E2844D
S31508003E98002ADFD1DA6822F08002DA60DA6842F0AE
S31508003EA84002DA60D6E70132EDE7511C2162127842
S31508003EB85A60E9E75006CDD54A06CBD5DA6822F026
S31508003EC84002DA60202384F83930204601F089F95F
S31508003ED8C0E700BFE13E000808B5806B0023C3852C
S31508003EE8C38401F091F908BD90F83830012B11D038
S31508003EF80268242380F83930D36823F00C0343F08A
S31508003F080803D360202380F83930002380F8383036
S31508003F18184670470220704790F83830012B11D0A0
S31508003F280268242380F83930D36823F00C0343F059
S31508003F380403D360202380F83930002380F838300A
S31508003F48184670470220704790F8392090F83A00CA
S31508003F581043704770B50C68134E50F82430D1E9F1
S31508003F6801251E4045EA0203CA6813430A69134332
S31508003F784A6913438A691343CA6913430A6A134386
S31508003F884A6A13438A6A1343CA6A1343CA6B1343B2
S31508003F980A6B13433343082D08BF43F0400340F820
S31508003FA82430002070BD00BF8000F0FF0B6810B5F4
S31508003FB88C6923434C6843EA04138C6843EA042350
S31508003FC8CC6800EB820243EA04430C6949695068E5
S31508003FD8013C43EA0453023900F0404043EA0163CE
S31508003FE803435360002010BDB3F5804F30B514D194
S31508003FF850F822300A4C8D691C400B682B434D68D3
S3150800400843EA05138D68C96843EA052343EA014369
S31508004018234340F82230002030BD6FF07043F8E79C
S315080040280000F0CF8AB0002308287CD8DFE800F023
S315080040380513202D3A4754616E0001933B4B3C48C3
S315080040481A6B42F001021A631B6B03F00103019312
S31508004058019B0AB070470293344B36481A6B42F0F4
S3150800406802021A631B6B03F002030293029BF0E732
S3150800407803932E4B30481A6B42F004021A631B6BE3
S3150800408803F004030393039BE3E70493274B2B48A6
S315080040981A6B42F008021A631B6B03F008030493B1
S315080040A8049BD6E70593214B25481A6B42F0100264
S315080040B81A631B6B03F010030593059BC9E7069360
S315080040C81A4B20481A6B42F020021A631B6B03F03E
S315080040D820030693069BBCE70793144B1A481A6BEA
S315080040E842F040021A631B6B03F040030793079BD1
S315080040F8AFE708930D4B15481A6B42F080021A630E
S315080041081B6B03F080030893089BA2E70993074BE8
S315080041180F481A6B42F480721A631B6B03F4807398
S315080041280993099B95E7002093E700BF00380240EA
S31508004138000002400004024000080240000C024049
S31508004148001002400014024000180240001C0240F9
S315080041580020024008B5064900F078FBC0F3C430D1
S31508004168831E022B9ABF80000438002008BD00BFB2
S31508004178C859020803681D4A934284B014D100231B
S3150800418801931B4B5A6C42F480725A645B6C03F4B5
S3150800419880730193019B174BB3F90000C30523D419
S315080041A8154904B000F00EBB144A93420CD10023FB
S315080041B802930F4B5A6C42F400725A645B6C03F410
S315080041C800730293029BE6E70D4A9342E3D1002364
S315080041D80393074B5A6C42F480625A645B6C03F487
S315080041E880630393039BD6E704B070470020014019
S315080041F80038024040000020DC5702080021014030
S3150800420800220140114B12495A6A42F480725A62D6
S315080042185A6A22F480725A6202688A4204D15A6C2F
S3150800422822F480725A6470470A498A4207D15A6C3E
S3150800423822F400725A645A6C22F40072F2E70649AC
S315080042488A42F0D15A6C22F48062EBE700380240C1
S31508004258002001400021014000220140F0B599B034
S31508004268074648220D4606A800211EF04FFD0021E4
S31508004278102202A81EF04AFD0024F905ADF80640EA
S31508004288BBB20DD5B7F5827F0ADA414A06926FF4B2
S3150800429880721344022B01D8A7F1F104072610E00F
S315080042A83C49384600F0AEFA3A490690384600F0D6
S315080042B8CDFAC0F3C434631E112B4FF0010688BF2C
S315080042C80024069B13B9002019B0F0BD4FF48033BB
S315080042D8082D079354D00A2D55D0062D56D14FF0E0
S315080042E840732D4A08930023CDE90933CDE91023F5
S315080042F88DF830308DF838300F938DF8483016938E
S3150800430814938DF85430254B012506A80B950D9561
S315080043181F80FDF791FF0028D5D1CDE9046002A9D1
S3150800432806A8CDE90245FEF729F90028CBD106A843
S31508004338FEF742F80028C6D10A2106A8FEF7CBF8E8
S315080043480028C0D106A8FEF7ABF9830505D506A847
S31508004358FEF710F980B2ADF8060006A8FEF7A0F831
S315080043680028B0D106A8FEF70DF80028ABD10C4AEC
S31508004378536823F440035360BDF8060080B2A3E7E8
S315080043884FF00073ADE74FF08073AAE70023A8E75C
S3150800439800200140DC5702080100000F40000020F9
S315080043A8002301402DE9F34789462549254C9846B7
S315080043B81746064600F026FAFDF716F854F8203090
S315080043C805467BB91E49304600F01CFA0190A8201C
S315080043D8FDF75BFD01998246FDF786F854F8253006
S315080043E8C3F800A054F8253015491C68304600F073
S315080043F82DFAC0F3C43529462046FCF7B3FF05282D
S31508004408824605D03346052229462046FCF700FF92
S31508004418022249462046FDF7F1F843463A46294618
S315080044282046FDF741F9BAF1050F05D0204602B036
S31508004438BDE8F047FCF7C6BE02B0BDE8F08700BF86
S31508004448C8590208E803002073B51549154C0646ED
S3150800445800F0D8F9FCF7C8FF54F82030054673B9B8
S315080044680F49304600F0CEF90190A820FDF70DFD5A
S3150800447801990646FDF738F854F825301E6054F8B1
S3150800448825301C684CB12046FDF70EF8A8212046B1
S3150800449802B0BDE87040FDF7FABC02B070BD00BFB7
S315080044A8C8590208E8030020FDF7ACBE704708B5EE
S315080044B8FDF79CFEFEF78EF9FFF7F8FF08BD00002A
S315080044C80B4BDA68D2015EBFDA6842F08072DA60AE
S315080044D8084B00225A601A6842F001021A6000BFA7
S315080044E800BF00BF5868B0FA80F04009704700BF9F
S315080044F8F0ED00E0001000E008B5FFF7E1FFFDF772
S315080045085BFEBDE80840FCF7DFBB00000023012876
S3150800451803F1010202D040081346F8E71421DBB27A
S315080045284B43044A181D1044816811B11A4413698B
S3150800453818477047440400200120FEF7AFBB022045
S31508004548FEF7ACBB0420FEF7A9BB0820FEF7A6BBFE
S315080045581020FEF7A3BB38B505242025A8B2FEF718
S315080045689DFB013C4FEA4505F8D138BD38B5062408
S315080045784FF48065A8B2FEF791FB013C4FEA450562
S31508004588F8D138BD204B07211975082183F828105A
S31508004598092183F83C100A21062283F850101721AE
S315080045A81A7083F86410002283F8781083F88C1040
S315080045B883F8A01083F8B4102821DA601A625A63BF
S315080045C89A64DA651A67C3F88420C3F89820C3F88A
S315080045D8AC20C3F8C02083F8C810C3F8D42083F8E1
S315080045E8DC10C3F8E82083F8F010C3F8FC2083F839
S315080045F80411C3F8102183F81811C3F8242183F885
S315080046082C11C3F8382170474404002038B5054CE6
S31508004618A4F5A075143C201DFCF720FDAC42F9D181
S3150800462838BD00BF8405002030B5436891FAA1F467
S31508004638B4FA84F50124AC4023EA040391FAA1F1FB
S31508004648B1FA81F18A401343436030BD30B5C46876
S3150800465891FAA1F3B3FA83F303255B0005FA03F38A
S3150800466824EA030391FAA1F1B1FA81F149008A40D3
S315080046781343C36030BD431C04D00C3131F90C3CDC
S315080046885A1C01D100207047834201F10C01F5D16B
S315080046980120704700F00F02484B2DE9F041C0F39E
S315080046A803141FFA80F8013053F822500E4601F019
S315080046B8070703D14248482100F0E8F82046FFF7E3
S315080046C8B1FC8368044695FAA5F2B2FA82F2032188
S315080046D8520001FA02F223EA020195FAA5F3B3FA9F
S315080046E883F35A00032393400B438360032F35D87B
S315080046F8DFE807F01D1D021D18F0080FC6F306228D
S3150800470817D0406A2B0A93FAA3F1B1FA81F14FF050
S315080047180F0C89000CFA01F120EA010193FAA3F3B8
S31508004728B3FA83F39B0002FA03F30B4363623B462F
S3150800473819E0036A95FAA5F1B1FA81F10F20890003
S3150800474800FA01F123EA010195FAA5F3B3FA83F30E
S315080047589B0002FA03F30B432362E8E718488D2106
S3150800476800F094F80023216895FAA5F2B2FA82F2C5
S315080047780320520000FA02F221EA020195FAA5F28C
S31508004788B2FA82F252009340013F0B43012F23608D
S3150800479807D816F0080218BF012229462046FFF74F
S315080047A843FFC6F30112012A02D0022A18BF0022C3
S315080047B829462046BDE8F041FFF748BF546202087B
S315080047C8EE610208431C06D17047834202D1896804
S315080047D8FFF760BF0C31B1F900305A1CF5D1024811
S315080047E8B92100F053B800BFEE610208B1F90030EC
S315080047F85A1C01D100207047834201D14868704786
S315080048080C31F3E7431C01D0FFF7F0BF00207047CF
S315080048184B6813B94FF0FF307047834202D1B1F99C
S31508004828000070470C31F3E708B1FFF7F1BF4FF006
S31508004838FF307047B1F900305A1C01D11846704745
S31508004848834201D1886870470C31F3E7431C01D0CD
S31508004858FFF7F0BF7047884204D018B100290CBF8B
S315080048680146002108467047034B1B6813B1034AE3
S3150800487810681847704700BF84050020A80500205F
S315080048880148FEF7CDBC00BF88050020FEE70000FA
S315080048980F49D1F8883043F47003C1F888300D4BB6
S315080048A81A68002042F001021A6098601A6822F015
S315080048B8847222F480321A60074A5A601A6822F407
S315080048C880221A60D8604FF000638B60704700BF7B
S315080048D800ED00E000380240103000240438704724
S315080048E803686D4A93428EB02AD1002200926B4A19
S315080048F8516C41F001015164526C02F001020092B8
S31508004908009A674A93425DD100220592634A116C60
S3150800491841F010011164126C02F010020592059A12
S31508004928604A93425DD100230A935C4B5A6C42F461
S3150800493880225A645B6C03F480230A930A9B26E058
S31508004948B3F1804F25D0584A93422FD0574A9342FD
S3150800495857D0574A9342D4D1002204924F4A116C31
S3150800496841F008011164126C02F008020492049AD4
S31508004978504A9342D4D100230993484B5A6C42F4BF
S3150800498800325A645B6C03F400330993099B0EB032
S31508004998704700220192414A116C41F001011164E5
S315080049A8126C02F001020192019AAAE70022029209
S315080049B83A4A116C41F002011164126C02F00202C3
S315080049C80292029A3C4A934227D100220692334A17
S315080049D8116C41F020011164126C02F02002069253
S315080049E8069A364A934246D100230B932B4B1A6CE8
S315080049F842F040021A641B6C03F040030B930B9BAE
S31508004A08C5E700220392254A116C41F00401116496
S31508004A18126C02F004020392039A294A93421ED0A2
S31508004A28284A9342A4D1002208921C4A516C41F4A0
S31508004A3880315164526C02F480320892089A224AEC
S31508004A489342A4D100230D93144B1A6C42F4807236
S31508004A581A641B6C03F480730D930D9B97E7002269
S31508004A6807920E4A516C41F002015164526C02F0E9
S31508004A7802020792079A154A9342E0D100230C933B
S31508004A88064B1A6C42F080021A641B6C03F080030A
S31508004A980C930C9B7BE700BF0000014000380240DE
S31508004AA8001000400048014000040040000800408B
S31508004AB8000C004000440140001400400018004063
S31508004AC8000401400040014000200040001C00404E
S31508004AD803683A4A934214D139494A6C22F00102CA
S31508004AE84A64384A934231D135490A6C22F0100291
S31508004AF80A64354A934231D1314A536C23F48023E8
S31508004B0817E0B3F1804F16D0304A934219D0304A8D
S31508004B1893422CD02F4A9342E3D129490A6C22F0B2
S31508004B2808020A642C4A9342E3D1254A536C23F4B3
S31508004B3800335364704722490A6C22F001020A645A
S31508004B48CFE71F490A6C22F002020A64234A9342F5
S31508004B5812D11B490A6C22F020020A64204A9342A1
S31508004B681ED1174A136C23F040031364704714497F
S31508004B780A6C22F004020A641A4A93420BD01A4AAB
S31508004B889342CFD10E494A6C22F480324A64174AB6
S31508004B9893420DD070470A494A6C22F002024A64C9
S31508004BA8134A9342F3D1064A136C23F08003DCE7D1
S31508004BB8034A136C23F48073D7E700BF000001404B
S31508004BC80038024000100040004801400004004038
S31508004BD800080040000C0040004401400014004052
S31508004BE80018004000040140004001400020004031
S31508004BF8001C004008B5431C014616D0294B9842AC
S31508004C083ED01ED8A3F5406398423BD010D8A3F5EA
S31508004C180063984238D003F58063984236D0B0F1DD
S31508004C28804F35D02048FFF731FE6FF00D0008BDDC
S31508004C381E4B98422ED003F580639842F2D137204E
S31508004C48F5E71B4B98420CD00DD8A3F56443984258
S31508004C5822D003F56043984220D0A3F564439842CE
S31508004C68E0D12C20E3E7134B984217D003F580636D
S31508004C78984215D0A3F500639842D3D11820D6E7F1
S31508004C882B20D4E73220D2E71D20D0E71E20CEE716
S31508004C981C20CCE73620CAE72D20C8E71920C6E726
S31508004CA81A20C4E700180040AC6202080010004049
S31508004CB8000401400044014008B5431C014616D0CB
S31508004CC82B4B98423ED022D8A3F5805398423BD026
S31508004CD810D8A3F50063984238D003F58063984244
S31508004CE836D0B0F1804F35D02248FFF7CFFD6FF0A8
S31508004CF80D0008BD204B98422ED003F580639842D4
S31508004D082CD0A3F500639842EED13620F1E71B4B69
S31508004D18984225D00DD8A3F58043984222D003F5AA
S31508004D288063984220D0A3F564439842DCD12D20AD
S31508004D38DFE7134B984219D003F580639842D3D11D
S31508004D481A20D6E72C20D4E73220D2E71D20D0E750
S31508004D581E20CEE71C20CCE73720CAE72B20C8E759
S31508004D681820C6E71B20C4E72E20C2E71920C0E78B
S31508004D78001C0040AC6202080014004000400140D4
S31508004D880044014038B50446FFF7AAFD0068FFF756
S31508004D9831FFD4E91012FDF797FC2068FFF72AFFC0
S31508004DA8FDF7C4FC2068FFF787FF05462068FFF76C
S31508004DB821FF85420DD02068FFF77EFFD4E910123F
S31508004DC8FDF782FC2068FFF777FFBDE83840FDF756
S31508004DD8ADBC38BD08B5431C014633D01C4B9842B8
S31508004DE834D020D8A3F5704398420AD00ED8A3F534
S31508004DF80063984205D006D820F48063B3F1804F43
S31508004E081DD101201FE0134B9942F9E7124B98422E
S31508004E18F7D006D8A3F500639842F2D003F5806365
S31508004E28F2E70E4BF0E70E4B98420FD00CD8A3F5D5
S31508004E38804398420AD003F57053994206D0094828
S31508004E48FFF724FD002008BD074BF6E70220FAE71E
S31508004E5800000140000C0040001C004000200040F3
S31508004E6800440140C4620208004801402DE9F047A1
S31508004E7886B004468846B0F94C007849DDF838907B
S31508004E8817461E46FFF7BEFC75498246B4F94E001A
S31508004E98FFF7B8FC0546BAF1000F00F0DB80B4F955
S31508004EA84E30013302D0002800F0D48029465046F7
S31508004EB8FFF7D1FC2060002800F0CC80694B9842A7
S31508004EC83BD103F594335A6A42F010025A625A6A79
S31508004ED822F010025A62002200925A6C42F010021E
S31508004EE85A645B6C03F010030093009B2523A4F80F
S31508004EF850305A49B4F94C00FFF764FC25B15849B3
S31508004F08B4F94E00FFF75EFC94F85120564B6661DB
S31508004F18201D43F8220023680C22C4E9013800231F
S31508004F28C4E90379C4E906232362002D40F08D807D
S31508004F3806B0BDE8F047FEF778BE4C4B984217D145
S31508004F4803F5FA331A6A42F400321A621A6A22F424
S31508004F5800321A62002201921A6C42F400321A646C
S31508004F681B6C03F400330193019B4FF49373BEE75C
S31508004F783F4B984217D103F5F8331A6A42F4802250
S31508004F881A621A6A22F480221A62002202921A6C9B
S31508004F9842F480221A641B6C03F480230293029B52
S31508004FA840F22723A3E7334B984217D103F5F63384
S31508004FB81A6A42F400221A621A6A22F400221A624B
S31508004FC8002203921A6C42F400221A641B6C03F43A
S31508004FD800230393039B4FF44D7388E7264B9842A7
S31508004FE817D103F5F4331A6A42F480121A621A6A58
S31508004FF822F480121A62002204921A6C42F4801271
S315080050081A641B6C03F480130493049B40F235431B
S315080050186DE71A4B98427FF46CAF03F592335A6AD8
S3150800502842F020025A625A6A22F020025A62002284
S3150800503805925A6C42F020025A645B6C03F020030E
S315080050480593059B40F2475351E706B0BDE8F0477C
S31508005058FEF7BDBD06B0BDE8F08700BFE45E0208EE
S31508005068545E020800100140AC05002000440040C8
S3150800507800480040004C0040005000400014014021
S3150800508808B1FFF7F3BE704708B5074B90F85120EB
S3150800509853F82200FEF758FF00F02200A0F1220379
S315080050A85842584108BD00BFAC05002008B5074B53
S315080050B890F8512053F82200FEF746FF00F0210029
S315080050C8A0F121035842584108BD00BFAC0500208D
S315080050D870B50E46054610B94FF0FF3070BDFFF79C
S315080050E8D3FF04460028F7D12946012211F8523F72
S315080050F8337095F85100034B53F82000FEF7E6FD88
S315080051082046EBE7AC05002070B50E460446F0B11C
S31508005118FFF7BAFF0546D0B994F950006664FDF75B
S3150800512813FB94F851000A4B04F1520153F8200076
S315080051380122FEF7CBFD94F950002A460121FDF716
S31508005148C3FA94F95000BDE87040FDF7EFBA70BD90
S31508005158AC05002010B50446E8B1816490F9500002
S31508005168FDF7F2FAA36DB4F8621094F8510013FA31
S3150800517881F1094B012253F82000FEF788FD94F9BE
S31508005188500000220121FDF79FFA94F95000BDE866
S315080051981040FDF7CBBA10BDAC05002050B1B0F9E8
S315080051A84E30013306D190F85120034B53F82200AC
S315080051B8FEF79ABE704700BFAC05002050B1B0F99B
S315080051C84E30013306D190F85120034B53F822008C
S315080051D8FEF7A2BE704700BFAC050020036C043872
S315080051E8184710B5436C04460438984701300AD066
S315080051F8B4F85E10636D20460122BDE8104013FA24
S3150800520881F1FEF744BD10BD1FB50368044618684A
S3150800521810F0010013D0002200921A6800925B6809
S315080052280093009B201FFFF72FFF40BB012204F1C4
S315080052384E01204604B0BDE81040FEF747BD196880
S3150800524811F0020106D001901A6801925B68019371
S31508005258019BE7E71A6812F0040206D002911A6859
S3150800526802925B680293029BDCE719680907D9D59D
S3150800527803921A6803925B680393039BD2E704B008
S3150800528810BD000008B52520FDF788FA024B1868F6
S31508005298BDE80840FEF77CBDAC05002008B5262009
S315080052A8FDF77CFA024B5868BDE80840FEF770BD62
S315080052B8AC05002008B52720FDF770FA034B986857
S315080052C818B1BDE80840FEF763BD08BDAC05002067
S315080052D808B53420FDF762FA024BD868BDE80840DD
S315080052E8FEF756BDAC05002008B53520FDF756FA79
S315080052F8024B1869BDE80840FEF74ABDAC05002010
S3150800530808B54720FDF74AFA024B5869BDE8084030
S31508005318FEF73EBDAC05002010B50A4C22681318E6
S31508005328EFF308818B4206D9074B0C221A604FF017
S31508005338FF32104610BD05490548091A8B42F3D2B3
S315080053482360F6E748000020ECE900200000012069
S3150800535800040000FEE70000024B16221A604FF010
S31508005368FF307047ECE900200120704770B5144EED
S31508005378144D00F0EDFA01211920FCF755FEB6F98F
S315080053883230C3F30312012455F8221003F00F0232
S3150800539804FA02F28A6145202146FCF745FEB6F969
S315080053A88A30C3F3031203F00F0355F8222010338B
S315080053B804FA03F39361BDE8704001F01FBA00BF11
S315080053C8CA5F0208DC160020024A536F43F080734E
S315080053D85367704700380240094B5A6F900009D442
S315080053E85A6FD10008D45A6F520107D4586FC0F3C0
S315080053F8C060704708207047202070470220704711
S315080054080038024008B5FCF7A3FD014B188008BD13
S31508005418C4050020BFF34F8F0549064BCA6802F436
S31508005428E0621343CB60BFF34F8F00BFFDE700BFB1
S3150800543800ED00E00400FA05044A13680133136016
S31508005448034B1B6803B11847704700BFC8050020FF
S31508005458CC05002070B51A4E1A4D01210820FCF714
S31508005468E3FDB6F91030C3F30312012455F82220D8
S3150800547803F00F0304FA03F3936121461A20FCF795
S31508005488D3FDB6F93430C3F3031203F00F0355F806
S31508005498222004FA03F3936100210E20FCF7C4FDC9
S315080054A821461B20FCF7C0FDB6F93630C3F30312B4
S315080054B803F00F0355F822209C40946170BD00BF85
S315080054C8CA5F0208DC1600200E4B062816D8DFE845
S315080054D800F004040A0C150F12007D220A481A80E7
S315080054E852211BF057BFFA22F8E74FF4FA72F5E78C
